8=FIX.4.4|9=67|35=A|34=1|49=client|52=20191011-15:21:16.288|56=server|98=0|108=30|10=026|8=FIX.4.4|9=55|35=0|34=2|49=client|52=20191011-15:21:47.047|56=server|10=235|8=FIX.4.4|9=55|35=0|34=3|49=client|52=20191011-15:22:17.047|56=server|10=234|8=FIX.4.4|9=55|35=0|34=4|49=client|52=20191011-15:22:47.044|56=server|10=235|8=FIX.4.4|9=55|35=0|34=5|49=client|52=20191011-15:23:17.047|56=server|10=237|8=FIX.4.4|9=55|35=0|34=6|49=client|52=20191011-15:23:47.045|56=server|10=239|8=FIX.4.4|9=55|35=0|34=7|49=client|52=20191011-15:24:17.047|56=server|10=240|8=FIX.4.4|9=55|35=0|34=8|49=client|52=20191011-15:24:47.049|56=server|10=246|8=FIX.4.4|9=55|35=0|34=9|49=client|52=20191011-15:25:17.050|56=server|10=237|8=FIX.4.4|9=56|35=0|34=10|49=client|52=20191011-15:25:47.049|56=server|10=033|8=FIX.4.4|9=56|35=0|34=11|49=client|52=20191011-15:26:17.052|56=server|10=026|8=FIX.4.4|9=68|35=A|34=12|49=client|52=20191011-15:26:47.585|56=server|98=0|108=30|10=086|8=FIX.4.4|9=56|35=0|34=13|49=client|52=20191011-15:27:18.398|56=server|10=043|8=FIX.4.4|9=56|35=0|34=14|49=client|52=20191011-15:27:48.400|56=server|10=031|8=FIX.4.4|9=56|35=0|34=15|49=client|52=20191011-15:28:18.402|56=server|10=032|8=FIX.4.4|9=56|35=0|34=16|49=client|52=20191011-15:28:48.398|56=server|10=050|8=FIX.4.4|9=56|35=0|34=17|49=client|52=20191011-15:29:18.398|56=server|10=049|8=FIX.4.4|9=56|35=0|34=18|49=client|52=20191011-15:29:48.403|56=server|10=040|8=FIX.4.4|9=56|35=0|34=19|49=client|52=20191011-15:30:18.403|56=server|10=030|8=FIX.4.4|9=56|35=0|34=20|49=client|52=20191011-15:30:48.402|56=server|10=024|8=FIX.4.4|9=56|35=0|34=21|49=client|52=20191011-15:31:18.401|56=server|10=022|8=FIX.4.4|9=56|35=0|34=22|49=client|52=20191011-15:31:48.394|56=server|10=037|8=FIX.4.4|9=56|35=0|34=23|49=client|52=20191011-15:32:18.387|56=server|10=038|8=FIX.4.4|9=56|35=0|34=24|49=client|52=20191011-15:32:48.387|56=server|10=042|8=FIX.4.4|9=56|35=0|34=25|49=client|52=20191011-15:33:18.388|56=server|10=042|8=FIX.4.4|9=56|35=0|34=26|49=client|52=20191011-15:33:48.389|56=server|10=047|8=FIX.4.4|9=56|35=0|34=27|49=client|52=20191011-15:34:18.386|56=server|10=043|8=FIX.4.4|9=56|35=0|34=28|49=client|52=20191011-15:34:48.386|56=server|10=047|8=FIX.4.4|9=56|35=0|34=29|49=client|52=20191011-15:35:18.388|56=server|10=048|8=FIX.4.4|9=56|35=0|34=30|49=client|52=20191011-15:35:48.390|56=server|10=036|8=FIX.4.4|9=56|35=0|34=31|49=client|52=20191011-15:36:18.388|56=server|10=042|8=FIX.4.4|9=56|35=0|34=32|49=client|52=20191011-15:36:48.388|56=server|10=046|8=FIX.4.4|9=56|35=0|34=33|49=client|52=20191011-15:37:18.389|56=server|10=046|8=FIX.4.4|9=56|35=0|34=34|49=client|52=20191011-15:37:48.389|56=server|10=050|8=FIX.4.4|9=56|35=0|34=35|49=client|52=20191011-15:38:18.393|56=server|10=044|8=FIX.4.4|9=56|35=0|34=36|49=client|52=20191011-15:38:48.390|56=server|10=045|8=FIX.4.4|9=56|35=0|34=37|49=client|52=20191011-15:39:18.388|56=server|10=051|8=FIX.4.4|9=56|35=0|34=38|49=client|52=20191011-15:39:48.389|56=server|10=056|8=FIX.4.4|9=56|35=0|34=39|49=client|52=20191011-15:40:18.388|56=server|10=045|8=FIX.4.4|9=56|35=0|34=40|49=client|52=20191011-15:40:48.387|56=server|10=039|8=FIX.4.4|9=56|35=0|34=41|49=client|52=20191011-15:41:18.387|56=server|10=038|8=FIX.4.4|9=56|35=0|34=42|49=client|52=20191011-15:41:48.387|56=server|10=042|8=FIX.4.4|9=56|35=0|34=43|49=client|52=20191011-15:42:18.390|56=server|10=035|8=FIX.4.4|9=56|35=0|34=44|49=client|52=20191011-15:42:48.391|56=server|10=040|8=FIX.4.4|9=56|35=0|34=45|49=client|52=20191011-15:43:18.390|56=server|10=038|8=FIX.4.4|9=56|35=0|34=46|49=client|52=20191011-15:43:48.389|56=server|10=050|8=FIX.4.4|9=56|35=0|34=47|49=client|52=20191011-15:44:18.392|56=server|10=043|8=FIX.4.4|9=56|35=0|34=48|49=client|52=20191011-15:44:48.388|56=server|10=052|8=FIX.4.4|9=56|35=0|34=49|49=client|52=20191011-15:45:18.391|56=server|10=045|8=FIX.4.4|9=56|35=0|34=50|49=client|52=20191011-15:45:48.393|56=server|10=042|8=FIX.4.4|9=56|35=0|34=51|49=client|52=20191011-15:46:18.389|56=server|10=046|8=FIX.4.4|9=56|35=0|34=52|49=client|52=20191011-15:46:48.392|56=server|10=044|8=FIX.4.4|9=56|35=0|34=53|49=client|52=20191011-15:47:18.390|56=server|10=041|8=FIX.4.4|9=56|35=0|34=54|49=client|52=20191011-15:47:48.392|56=server|10=047|8=FIX.4.4|9=56|35=0|34=55|49=client|52=20191011-15:48:18.393|56=server|10=047|8=FIX.4.4|9=56|35=0|34=56|49=client|52=20191011-15:48:48.392|56=server|10=050|8=FIX.4.4|9=56|35=0|34=57|49=client|52=20191011-15:49:18.390|56=server|10=047|8=FIX.4.4|9=56|35=0|34=58|49=client|52=20191011-15:49:48.391|56=server|10=052|8=FIX.4.4|9=56|35=0|34=59|49=client|52=20191011-15:50:18.391|56=server|10=042|8=FIX.4.4|9=56|35=0|34=60|49=client|52=20191011-15:50:48.393|56=server|10=039|8=FIX.4.4|9=56|35=0|34=61|49=client|52=20191011-15:51:18.392|56=server|10=037|8=FIX.4.4|9=56|35=0|34=62|49=client|52=20191011-15:51:48.393|56=server|10=042|8=FIX.4.4|9=56|35=0|34=63|49=client|52=20191011-15:52:18.390|56=server|10=038|8=FIX.4.4|9=56|35=0|34=64|49=client|52=20191011-15:52:48.391|56=server|10=043|8=FIX.4.4|9=56|35=0|34=65|49=client|52=20191011-15:53:18.393|56=server|10=044|8=FIX.4.4|9=56|35=0|34=66|49=client|52=20191011-15:53:48.394|56=server|10=049|8=FIX.4.4|9=56|35=0|34=67|49=client|52=20191011-15:54:18.392|56=server|10=046|8=FIX.4.4|9=56|35=0|34=68|49=client|52=20191011-15:54:48.391|56=server|10=049|8=FIX.4.4|9=56|35=0|34=69|49=client|52=20191011-15:55:18.392|56=server|10=049|8=FIX.4.4|9=56|35=0|34=70|49=client|52=20191011-15:55:48.396|56=server|10=048|8=FIX.4.4|9=68|35=A|34=71|49=client|52=20191011-15:56:17.716|56=server|98=0|108=30|10=087|8=FIX.4.4|9=56|35=0|34=72|49=client|52=20191011-15:56:48.392|56=server|10=047|8=FIX.4.4|9=68|35=A|34=73|49=client|52=20191011-15:57:39.153|56=server|98=0|108=30|10=089|8=FIX.4.4|9=110|35=D|34=74|49=client|52=20191011-15:57:48.174|56=server|11=1|21=1|40=1|54=1|55=PETR4|60=20191011-12:57:48.145|10=167|8=FIX.4.4|9=68|35=A|34=75|49=client|52=20191011-15:58:12.021|56=server|98=0|108=30|10=077|8=FIX.4.4|9=110|35=D|34=76|49=client|52=20191011-15:58:21.040|56=server|11=1|21=1|40=1|54=1|55=PETR4|60=20191011-12:58:21.014|10=140|8=FIX.4.4|9=110|35=D|34=77|49=client|52=20191011-15:58:31.046|56=server|11=2|21=1|40=1|54=1|55=PETR4|60=20191011-12:58:31.045|10=154|8=FIX.4.4|9=110|35=D|34=78|49=client|52=20191011-15:58:41.050|56=server|11=3|21=1|40=1|54=1|55=PETR4|60=20191011-12:58:41.050|10=149|8=FIX.4.4|9=110|35=D|34=79|49=client|52=20191011-15:58:51.052|56=server|11=4|21=1|40=1|54=1|55=PETR4|60=20191011-12:58:51.052|10=157|8=FIX.4.4|9=110|35=D|34=80|49=client|52=20191011-15:59:01.055|56=server|11=5|21=1|40=1|54=1|55=PETR4|60=20191011-12:59:01.055|10=148|8=FIX.4.4|9=110|35=D|34=81|49=client|52=20191011-15:59:11.060|56=server|11=6|21=1|40=1|54=1|55=PETR4|60=20191011-12:59:11.060|10=144|8=FIX.4.4|9=110|35=D|34=82|49=client|52=20191011-15:59:21.063|56=server|11=7|21=1|40=1|54=1|55=PETR4|60=20191011-12:59:21.063|10=154|8=FIX.4.4|9=110|35=D|34=83|49=client|52=20191011-15:59:31.069|56=server|11=8|21=1|40=1|54=1|55=PETR4|60=20191011-12:59:31.069|10=170|8=FIX.4.4|9=110|35=D|34=84|49=client|52=20191011-15:59:41.074|56=server|11=9|21=1|40=1|54=1|55=PETR4|60=20191011-12:59:41.074|10=166|8=FIX.4.4|9=111|35=D|34=85|49=client|52=20191011-15:59:51.080|56=server|11=10|21=1|40=1|54=1|55=PETR4|60=20191011-12:59:51.079|10=212|8=FIX.4.4|9=111|35=D|34=86|49=client|52=20191011-16:00:01.085|56=server|11=11|21=1|40=1|54=1|55=PETR4|60=20191011-13:00:01.085|10=180|8=FIX.4.4|9=111|35=D|34=87|49=client|52=20191011-16:00:11.087|56=server|11=12|21=1|40=1|54=1|55=PETR4|60=20191011-13:00:11.087|10=188|8=FIX.4.4|9=68|35=A|34=88|49=client|52=20191011-16:01:12.876|56=server|98=0|108=30|10=088|8=FIX.4.4|9=110|35=D|34=89|49=client|52=20191011-16:01:21.892|56=server|11=1|21=1|40=1|54=1|55=PETR4|60=20191011-13:01:21.868|10=154|8=FIX.4.4|9=110|35=D|34=90|49=client|52=20191011-16:01:31.897|56=server|11=2|21=1|40=1|54=1|55=PETR4|60=20191011-13:01:31.897|10=156|8=FIX.4.4|9=110|35=D|34=91|49=client|52=20191011-16:01:41.911|56=server|11=3|21=1|40=1|54=1|55=PETR4|60=20191011-13:01:41.911|10=134|