8=FIX.4.4|9=67|35=A|34=1|49=server|52=20191011-15:21:16.472|56=client|98=0|108=30|10=021|8=FIX.4.4|9=55|35=0|34=2|49=server|52=20191011-15:21:47.045|56=client|10=233|8=FIX.4.4|9=55|35=0|34=3|49=server|52=20191011-15:22:17.045|56=client|10=232|8=FIX.4.4|9=55|35=0|34=4|49=server|52=20191011-15:22:47.042|56=client|10=233|8=FIX.4.4|9=55|35=0|34=5|49=server|52=20191011-15:23:17.045|56=client|10=235|8=FIX.4.4|9=55|35=0|34=6|49=server|52=20191011-15:23:47.043|56=client|10=237|8=FIX.4.4|9=55|35=0|34=7|49=server|52=20191011-15:24:17.045|56=client|10=238|8=FIX.4.4|9=55|35=0|34=8|49=server|52=20191011-15:24:47.048|56=client|10=245|8=FIX.4.4|9=55|35=0|34=9|49=server|52=20191011-15:25:17.046|56=client|10=242|8=FIX.4.4|9=56|35=0|34=10|49=server|52=20191011-15:25:47.047|56=client|10=031|8=FIX.4.4|9=56|35=0|34=11|49=server|52=20191011-15:26:17.048|56=client|10=031|8=FIX.4.4|9=68|35=A|34=12|49=server|52=20191011-15:26:47.741|56=client|98=0|108=30|10=080|8=FIX.4.4|9=56|35=0|34=13|49=server|52=20191011-15:27:18.396|56=client|10=041|8=FIX.4.4|9=56|35=0|34=14|49=server|52=20191011-15:27:48.399|56=client|10=048|8=FIX.4.4|9=56|35=0|34=15|49=server|52=20191011-15:28:18.400|56=client|10=030|8=FIX.4.4|9=56|35=0|34=16|49=server|52=20191011-15:28:48.396|56=client|10=048|8=FIX.4.4|9=56|35=0|34=17|49=server|52=20191011-15:29:18.397|56=client|10=048|8=FIX.4.4|9=56|35=0|34=18|49=server|52=20191011-15:29:48.401|56=client|10=038|8=FIX.4.4|9=56|35=0|34=19|49=server|52=20191011-15:30:18.401|56=client|10=028|8=FIX.4.4|9=56|35=0|34=20|49=server|52=20191011-15:30:48.400|56=client|10=022|8=FIX.4.4|9=56|35=0|34=21|49=server|52=20191011-15:31:18.399|56=client|10=038|8=FIX.4.4|9=56|35=0|34=22|49=server|52=20191011-15:31:48.392|56=client|10=035|8=FIX.4.4|9=56|35=0|34=23|49=server|52=20191011-15:32:18.386|56=client|10=037|8=FIX.4.4|9=56|35=0|34=24|49=server|52=20191011-15:32:48.385|56=client|10=040|8=FIX.4.4|9=56|35=0|34=25|49=server|52=20191011-15:33:18.386|56=client|10=040|8=FIX.4.4|9=56|35=0|34=26|49=server|52=20191011-15:33:48.387|56=client|10=045|8=FIX.4.4|9=56|35=0|34=27|49=server|52=20191011-15:34:18.385|56=client|10=042|8=FIX.4.4|9=56|35=0|34=28|49=server|52=20191011-15:34:48.385|56=client|10=046|8=FIX.4.4|9=56|35=0|34=29|49=server|52=20191011-15:35:18.386|56=client|10=046|8=FIX.4.4|9=56|35=0|34=30|49=server|52=20191011-15:35:48.388|56=client|10=043|8=FIX.4.4|9=56|35=0|34=31|49=server|52=20191011-15:36:18.387|56=client|10=041|8=FIX.4.4|9=56|35=0|34=32|49=server|52=20191011-15:36:48.386|56=client|10=044|8=FIX.4.4|9=56|35=0|34=33|49=server|52=20191011-15:37:18.388|56=client|10=045|8=FIX.4.4|9=56|35=0|34=34|49=server|52=20191011-15:37:48.388|56=client|10=049|8=FIX.4.4|9=56|35=0|34=35|49=server|52=20191011-15:38:18.389|56=client|10=049|8=FIX.4.4|9=56|35=0|34=36|49=server|52=20191011-15:38:48.388|56=client|10=052|8=FIX.4.4|9=56|35=0|34=37|49=server|52=20191011-15:39:18.386|56=client|10=049|8=FIX.4.4|9=56|35=0|34=38|49=server|52=20191011-15:39:48.387|56=client|10=054|8=FIX.4.4|9=56|35=0|34=39|49=server|52=20191011-15:40:18.386|56=client|10=043|8=FIX.4.4|9=56|35=0|34=40|49=server|52=20191011-15:40:48.385|56=client|10=037|8=FIX.4.4|9=56|35=0|34=41|49=server|52=20191011-15:41:18.386|56=client|10=037|8=FIX.4.4|9=56|35=0|34=42|49=server|52=20191011-15:41:48.386|56=client|10=041|8=FIX.4.4|9=56|35=0|34=43|49=server|52=20191011-15:42:18.389|56=client|10=043|8=FIX.4.4|9=56|35=0|34=44|49=server|52=20191011-15:42:48.389|56=client|10=047|8=FIX.4.4|9=56|35=0|34=45|49=server|52=20191011-15:43:18.388|56=client|10=045|8=FIX.4.4|9=56|35=0|34=46|49=server|52=20191011-15:43:48.387|56=client|10=048|8=FIX.4.4|9=56|35=0|34=47|49=server|52=20191011-15:44:18.391|56=client|10=042|8=FIX.4.4|9=56|35=0|34=48|49=server|52=20191011-15:44:48.387|56=client|10=051|8=FIX.4.4|9=56|35=0|34=49|49=server|52=20191011-15:45:18.389|56=client|10=052|8=FIX.4.4|9=56|35=0|34=50|49=server|52=20191011-15:45:48.389|56=client|10=047|8=FIX.4.4|9=56|35=0|34=51|49=server|52=20191011-15:46:18.388|56=client|10=045|8=FIX.4.4|9=56|35=0|34=52|49=server|52=20191011-15:46:48.390|56=client|10=042|8=FIX.4.4|9=56|35=0|34=53|49=server|52=20191011-15:47:18.389|56=client|10=049|8=FIX.4.4|9=56|35=0|34=54|49=server|52=20191011-15:47:48.391|56=client|10=046|8=FIX.4.4|9=56|35=0|34=55|49=server|52=20191011-15:48:18.392|56=client|10=046|8=FIX.4.4|9=56|35=0|34=56|49=server|52=20191011-15:48:48.391|56=client|10=049|8=FIX.4.4|9=56|35=0|34=57|49=server|52=20191011-15:49:18.388|56=client|10=054|8=FIX.4.4|9=56|35=0|34=58|49=server|52=20191011-15:49:48.389|56=client|10=059|8=FIX.4.4|9=56|35=0|34=59|49=server|52=20191011-15:50:18.390|56=client|10=041|8=FIX.4.4|9=56|35=0|34=60|49=server|52=20191011-15:50:48.392|56=client|10=038|8=FIX.4.4|9=56|35=0|34=61|49=server|52=20191011-15:51:18.391|56=client|10=036|8=FIX.4.4|9=56|35=0|34=62|49=server|52=20191011-15:51:48.391|56=client|10=040|8=FIX.4.4|9=56|35=0|34=63|49=server|52=20191011-15:52:18.389|56=client|10=046|8=FIX.4.4|9=56|35=0|34=64|49=server|52=20191011-15:52:48.389|56=client|10=050|8=FIX.4.4|9=56|35=0|34=65|49=server|52=20191011-15:53:18.392|56=client|10=043|8=FIX.4.4|9=56|35=0|34=66|49=server|52=20191011-15:53:48.393|56=client|10=048|8=FIX.4.4|9=56|35=0|34=67|49=server|52=20191011-15:54:18.391|56=client|10=045|8=FIX.4.4|9=56|35=0|34=68|49=server|52=20191011-15:54:48.390|56=client|10=048|8=FIX.4.4|9=56|35=0|34=69|49=server|52=20191011-15:55:18.390|56=client|10=047|8=FIX.4.4|9=56|35=0|34=70|49=server|52=20191011-15:55:48.394|56=client|10=046|8=FIX.4.4|9=68|35=A|34=71|49=server|52=20191011-15:56:17.889|56=client|98=0|108=30|10=098|8=FIX.4.4|9=56|35=0|34=72|49=server|52=20191011-15:56:48.389|56=client|10=053|8=FIX.4.4|9=68|35=A|34=73|49=server|52=20191011-15:57:39.270|56=client|98=0|108=30|10=089|8=FIX.4.4|9=68|35=A|34=74|49=server|52=20191011-15:58:12.180|56=client|98=0|108=30|10=082|8=FIX.4.4|9=56|35=0|34=75|49=server|52=20191011-15:58:42.190|56=client|10=042|8=FIX.4.4|9=56|35=0|34=76|49=server|52=20191011-15:59:12.189|56=client|10=049|8=FIX.4.4|9=56|35=0|34=77|49=server|52=20191011-15:59:42.190|56=client|10=045|8=FIX.4.4|9=56|35=0|34=78|49=server|52=20191011-16:00:12.187|56=client|10=036|8=FIX.4.4|9=68|35=A|34=79|49=server|52=20191011-16:01:13.057|56=client|98=0|108=30|10=080|8=FIX.4.4|9=56|35=0|34=80|49=server|52=20191011-16:01:43.251|56=client|10=026|